{
  "_format": "hh-sol-artifact-1",
  "contractName": "EtherStaking",
  "sourceName": "contracts/EtherStaking.sol",
  "abi": [
    {
      "inputs": [],
      "stateMutability": "payable",
      "type": "constructor"
    },
    {
      "inputs": [
        {
          "internalType": "uint256",
          "name": "positionId",
          "type": "uint256"
        },
        {
          "internalType": "uint256",
          "name": "newUnlockDate",
          "type": "uint256"
        }
      ],
      "name": "changeUnlockDate",
      "outputs": [],
      "stateMutability": "nonpayable",
      "type": "function"
    },
    {
      "inputs": [
        {
          "internalType": "uint256",
          "name": "positionId",
          "type": "uint256"
        }
      ],
      "name": "closePosition",
      "outputs": [],
      "stateMutability": "nonpayable",
      "type": "function"
    },
    {
      "inputs": [],
      "name": "currentPositionId",
      "outputs": [
        {
          "internalType": "uint256",
          "name": "",
          "type": "uint256"
        }
      ],
      "stateMutability": "view",
      "type": "function"
    },
    {
      "inputs": [
        {
          "internalType": "uint256",
          "name": "",
          "type": "uint256"
        }
      ],
      "name": "dayLockPeriods",
      "outputs": [
        {
          "internalType": "uint256",
          "name": "",
          "type": "uint256"
        }
      ],
      "stateMutability": "view",
      "type": "function"
    },
    {
      "inputs": [
        {
          "internalType": "uint256",
          "name": "numDays",
          "type": "uint256"
        }
      ],
      "name": "getInterestRate",
      "outputs": [
        {
          "internalType": "uint256",
          "name": "",
          "type": "uint256"
        }
      ],
      "stateMutability": "view",
      "type": "function"
    },
    {
      "inputs": [],
      "name": "getLockPeriods",
      "outputs": [
        {
          "internalType": "uint256[]",
          "name": "",
          "type": "uint256[]"
        }
      ],
      "stateMutability": "view",
      "type": "function"
    },
    {
      "inputs": [
        {
          "internalType": "address",
          "name": "walletAddress",
          "type": "address"
        }
      ],
      "name": "getPositionIdsForAddress",
      "outputs": [
        {
          "internalType": "uint256[]",
          "name": "",
          "type": "uint256[]"
        }
      ],
      "stateMutability": "view",
      "type": "function"
    },
    {
      "inputs": [
        {
          "internalType": "uint256",
          "name": "positionId",
          "type": "uint256"
        }
      ],
      "name": "getPositionbyId",
      "outputs": [
        {
          "components": [
            {
              "internalType": "uint256",
              "name": "positionId",
              "type": "uint256"
            },
            {
              "internalType": "address",
              "name": "walletAddress",
              "type": "address"
            },
            {
              "internalType": "uint256",
              "name": "createdDate",
              "type": "uint256"
            },
            {
              "internalType": "uint256",
              "name": "unlockDate",
              "type": "uint256"
            },
            {
              "internalType": "uint256",
              "name": "percentInterest",
              "type": "uint256"
            },
            {
              "internalType": "uint256",
              "name": "weiStaked",
              "type": "uint256"
            },
            {
              "internalType": "uint256",
              "name": "weiInterest",
              "type": "uint256"
            },
            {
              "internalType": "bool",
              "name": "open",
              "type": "bool"
            }
          ],
          "internalType": "struct EtherStaking.Position",
          "name": "",
          "type": "tuple"
        }
      ],
      "stateMutability": "view",
      "type": "function"
    },
    {
      "inputs": [
        {
          "internalType": "uint256",
          "name": "id",
          "type": "uint256"
        }
      ],
      "name": "getTierbyId",
      "outputs": [
        {
          "internalType": "uint256",
          "name": "",
          "type": "uint256"
        }
      ],
      "stateMutability": "view",
      "type": "function"
    },
    {
      "inputs": [
        {
          "internalType": "uint256",
          "name": "numDays",
          "type": "uint256"
        },
        {
          "internalType": "uint256",
          "name": "basisPoints",
          "type": "uint256"
        }
      ],
      "name": "modifyLockPeriods",
      "outputs": [],
      "stateMutability": "nonpayable",
      "type": "function"
    },
    {
      "inputs": [],
      "name": "owner",
      "outputs": [
        {
          "internalType": "address",
          "name": "",
          "type": "address"
        }
      ],
      "stateMutability": "view",
      "type": "function"
    },
    {
      "inputs": [
        {
          "internalType": "address",
          "name": "",
          "type": "address"
        },
        {
          "internalType": "uint256",
          "name": "",
          "type": "uint256"
        }
      ],
      "name": "posiitonIdsByAddress",
      "outputs": [
        {
          "internalType": "uint256",
          "name": "",
          "type": "uint256"
        }
      ],
      "stateMutability": "view",
      "type": "function"
    },
    {
      "inputs": [
        {
          "internalType": "uint256",
          "name": "",
          "type": "uint256"
        }
      ],
      "name": "positions",
      "outputs": [
        {
          "internalType": "uint256",
          "name": "positionId",
          "type": "uint256"
        },
        {
          "internalType": "address",
          "name": "walletAddress",
          "type": "address"
        },
        {
          "internalType": "uint256",
          "name": "createdDate",
          "type": "uint256"
        },
        {
          "internalType": "uint256",
          "name": "unlockDate",
          "type": "uint256"
        },
        {
          "internalType": "uint256",
          "name": "percentInterest",
          "type": "uint256"
        },
        {
          "internalType": "uint256",
          "name": "weiStaked",
          "type": "uint256"
        },
        {
          "internalType": "uint256",
          "name": "weiInterest",
          "type": "uint256"
        },
        {
          "internalType": "bool",
          "name": "open",
          "type": "bool"
        }
      ],
      "stateMutability": "view",
      "type": "function"
    },
    {
      "inputs": [
        {
          "internalType": "uint256",
          "name": "numDays",
          "type": "uint256"
        }
      ],
      "name": "stakeEther",
      "outputs": [],
      "stateMutability": "payable",
      "type": "function"
    }
  ],
  "bytecode": "0x6080604052336000806101000a81548173ffffffffffffffffffffffffffffffffffffffff021916908373ffffffffffffffffffffffffffffffffffffffff1602179055506000600181905550600760046000601e815260200190815260200160002081905550600a60046000605a815260200190815260200160002081905550600c6004600060b48152602001908152602001600020819055506005601e90806001815401808255809150506001900390600052602060002001600090919091909150556005605a9080600181540180825580915050600190039060005260206000200160009091909190915055600560b490806001815401808255809150506001900390600052602060002001600090919091909150556116b3806101276000396000f3fe6080604052600436106100dd5760003560e01c8063a126d6011161007f578063bbb6200c11610059578063bbb6200c146102ed578063c7c9d0551461032a578063e3f1fe1a14610353578063e4f9084114610390576100dd565b8063a126d6011461025e578063b0f0475b14610287578063b53e9971146102b0576100dd565b806340d98a44116100bb57806340d98a441461018757806341ee13be146101c45780638da5cb5b146101ef57806399fbab881461021a576100dd565b80630c196a74146100e25780631131c8cd1461011f57806325db145b1461014a575b600080fd5b3480156100ee57600080fd5b5061010960048036038101906101049190610e75565b6103ac565b604051610116919061126f565b60405180910390f35b34801561012b57600080fd5b506101346103c9565b604051610141919061126f565b60405180910390f35b34801561015657600080fd5b50610171600480360381019061016c9190610e75565b6103cf565b60405161017e919061126f565b60405180910390f35b34801561019357600080fd5b506101ae60048036038101906101a99190610e10565b6103ec565b6040516101bb9190611171565b60405180910390f35b3480156101d057600080fd5b506101d9610483565b6040516101e69190611171565b60405180910390f35b3480156101fb57600080fd5b506102046104db565b6040516102119190611156565b60405180910390f35b34801561022657600080fd5b50610241600480360381019061023c9190610e75565b6104ff565b60405161025598979695949392919061128a565b60405180910390f35b34801561026a57600080fd5b5061028560048036038101906102809190610e75565b610574565b005b34801561029357600080fd5b506102ae60048036038101906102a99190610e9e565b610885565b005b3480156102bc57600080fd5b506102d760048036038101906102d29190610e75565b610958565b6040516102e4919061126f565b60405180910390f35b3480156102f957600080fd5b50610314600480360381019061030f9190610e39565b61097c565b604051610321919061126f565b60405180910390f35b34801561033657600080fd5b50610351600480360381019061034c9190610e9e565b6109ad565b005b34801561035f57600080fd5b5061037a60048036038101906103759190610e75565b610a5a565b6040516103879190611253565b60405180910390f35b6103aa60048036038101906103a59190610e75565b610b35565b005b600060046000838152602001908152602001600020549050919050565b60015481565b600060046000838152602001908152602001600020549050919050565b6060600360008373ffffffffffffffffffffffffffffffffffffffff1673ffffffffffffffffffffffffffffffffffffffff16815260200190815260200160002080548060200260200160405190810160405280929190818152602001828054801561047757602002820191906000526020600020905b815481526020019060010190808311610463575b50505050509050919050565b606060058054806020026020016040519081016040528092919081815260200182805480156104d157602002820191906000526020600020905b8154815260200190600101908083116104bd575b5050505050905090565b60008054906101000a900473ffffffffffffffffffffffffffffffffffffffff1681565b60026020528060005260406000206000915090508060000154908060010160009054906101000a900473ffffffffffffffffffffffffffffffffffffffff16908060020154908060030154908060040154908060050154908060060154908060070160009054906101000a900460ff16905088565b3373ffffffffffffffffffffffffffffffffffffffff166002600083815260200190815260200160002060010160009054906101000a900473ffffffffffffffffffffffffffffffffffffffff1673ffffffffffffffffffffffffffffffffffffffff1614610618576040517f08c379a000000000000000000000000000000000000000000000000000000000815260040161060f90611213565b60405180910390fd5b600115156002600083815260200190815260200160002060070160009054906101000a900460ff16151514610682576040517f08c379a000000000000000000000000000000000000000000000000000000000815260040161067990611233565b60405180910390fd5b60006002600083815260200190815260200160002060070160006101000a81548160ff02191690831515021790555060026000828152602001908152602001600020600301544211156107be57600060026000838152602001908152602001600020600601546002600084815260200190815260200160002060050154610709919061135d565b905060003373ffffffffffffffffffffffffffffffffffffffff168260405161073190611141565b60006040518083038185875af1925050503d806000811461076e576040519150601f19603f3d011682016040523d82523d6000602084013e610773565b606091505b50509050806107b7576040517f08c379a00000000000000000000000000000000000000000000000000000000081526004016107ae906111f3565b60405180910390fd5b5050610882565b60003373ffffffffffffffffffffffffffffffffffffffff1660026000848152602001908152602001600020600501546040516107fa90611141565b60006040518083038185875af1925050503d8060008114610837576040519150601f19603f3d011682016040523d82523d6000602084013e61083c565b606091505b5050905080610880576040517f08c379a0000000000000000000000000000000000000000000000000000000008152600401610877906111f3565b60405180910390fd5b505b50565b3373ffffffffffffffffffffffffffffffffffffffff1660008054906101000a900473ffffffffffffffffffffffffffffffffffffffff1673ffffffffffffffffffffffffffffffffffffffff1614610913576040517f08c379a000000000000000000000000000000000000000000000000000000000815260040161090a906111d3565b60405180910390fd5b80600460008481526020019081526020016000208190555060058290806001815401808255809150506001900390600052602060002001600090919091909150555050565b6005818154811061096857600080fd5b906000526020600020016000915090505481565b6003602052816000526040600020818154811061099857600080fd5b90600052602060002001600091509150505481565b3373ffffffffffffffffffffffffffffffffffffffff1660008054906101000a900473ffffffffffffffffffffffffffffffffffffffff1673ffffffffffffffffffffffffffffffffffffffff1614610a3b576040517f08c379a0000000000000000000000000000000000000000000000000000000008152600401610a3290611193565b60405180910390fd5b8060026000848152602001908152602001600020600301819055505050565b610a62610d89565b6002600083815260200190815260200160002060405180610100016040529081600082015481526020016001820160009054906101000a900473ffffffffffffffffffffffffffffffffffffffff1673ffffffffffffffffffffffffffffffffffffffff1673ffffffffffffffffffffffffffffffffffffffff16815260200160028201548152602001600382015481526020016004820154815260200160058201548152602001600682015481526020016007820160009054906101000a900460ff1615151515815250509050919050565b6000600460008381526020019081526020016000205411610b8b576040517f08c379a0000000000000000000000000000000000000000000000000000000008152600401610b82906111b3565b60405180910390fd5b60405180610100016040528060015481526020013373ffffffffffffffffffffffffffffffffffffffff1681526020014281526020016201518083610bd091906113e4565b42610bdb919061135d565b815260200160046000848152602001908152602001600020548152602001348152602001610c1c600460008581526020019081526020016000205434610d67565b8152602001600115158152506002600060015481526020019081526020016000206000820151816000015560208201518160010160006101000a81548173ffffffffffffffffffffffffffffffffffffffff021916908373ffffffffffffffffffffffffffffffffffffffff16021790555060408201518160020155606082015181600301556080820151816004015560a0820151816005015560c0820151816006015560e08201518160070160006101000a81548160ff021916908315150217905550905050600360003373ffffffffffffffffffffffffffffffffffffffff1673ffffffffffffffffffffffffffffffffffffffff16815260200190815260200160002060015490806001815401808255809150506001900390600052602060002001600090919091909150556001806000828254610d5d919061135d565b9250508190555050565b600081606484610d7791906113b3565b610d8191906113e4565b905092915050565b60405180610100016040528060008152602001600073ffffffffffffffffffffffffffffffffffffffff16815260200160008152602001600081526020016000815260200160008152602001600081526020016000151581525090565b600081359050610df58161164f565b92915050565b600081359050610e0a81611666565b92915050565b600060208284031215610e2257600080fd5b6000610e3084828501610de6565b91505092915050565b60008060408385031215610e4c57600080fd5b6000610e5a85828601610de6565b9250506020610e6b85828601610dfb565b9150509250929050565b600060208284031215610e8757600080fd5b6000610e9584828501610dfb565b91505092915050565b60008060408385031215610eb157600080fd5b6000610ebf85828601610dfb565b9250506020610ed085828601610dfb565b9150509250929050565b6000610ee68383611123565b60208301905092915050565b610efb8161143e565b82525050565b610f0a8161143e565b82525050565b6000610f1b82611318565b610f258185611330565b9350610f3083611308565b8060005b83811015610f61578151610f488882610eda565b9750610f5383611323565b925050600181019050610f34565b5085935050505092915050565b610f7781611450565b82525050565b610f8681611450565b82525050565b6000610f9960258361134c565b9150610fa4826114e4565b604082019050919050565b6000610fbc60118361134c565b9150610fc782611533565b602082019050919050565b6000610fdf60248361134c565b9150610fea8261155c565b604082019050919050565b600061100260158361134c565b915061100d826115ab565b602082019050919050565b600061102560298361134c565b9150611030826115d4565b604082019050919050565b600061104860128361134c565b915061105382611623565b602082019050919050565b600061106b600083611341565b91506110768261164c565b600082019050919050565b610100820160008201516110986000850182611123565b5060208201516110ab6020850182610ef2565b5060408201516110be6040850182611123565b5060608201516110d16060850182611123565b5060808201516110e46080850182611123565b5060a08201516110f760a0850182611123565b5060c082015161110a60c0850182611123565b5060e082015161111d60e0850182610f6e565b50505050565b61112c8161147c565b82525050565b61113b8161147c565b82525050565b600061114c8261105e565b9150819050919050565b600060208201905061116b6000830184610f01565b92915050565b6000602082019050818103600083015261118b8184610f10565b905092915050565b600060208201905081810360008301526111ac81610f8c565b9050919050565b600060208201905081810360008301526111cc81610faf565b9050919050565b600060208201905081810360008301526111ec81610fd2565b9050919050565b6000602082019050818103600083015261120c81610ff5565b9050919050565b6000602082019050818103600083015261122c81611018565b9050919050565b6000602082019050818103600083015261124c8161103b565b9050919050565b6000610100820190506112696000830184611081565b92915050565b60006020820190506112846000830184611132565b92915050565b6000610100820190506112a0600083018b611132565b6112ad602083018a610f01565b6112ba6040830189611132565b6112c76060830188611132565b6112d46080830187611132565b6112e160a0830186611132565b6112ee60c0830185611132565b6112fb60e0830184610f7d565b9998505050505050505050565b6000819050602082019050919050565b600081519050919050565b6000602082019050919050565b600082825260208201905092915050565b600081905092915050565b600082825260208201905092915050565b60006113688261147c565b91506113738361147c565b9250827fffffffffffffffffffffffffffffffffffffffffffffffffffffffffffffffff038211156113a8576113a7611486565b5b828201905092915050565b60006113be8261147c565b91506113c98361147c565b9250826113d9576113d86114b5565b5b828204905092915050565b60006113ef8261147c565b91506113fa8361147c565b9250817fffffffffffffffffffffffffffffffffffffffffffffffffffffffffffffffff048311821515161561143357611432611486565b5b828202905092915050565b60006114498261145c565b9050919050565b60008115159050919050565b600073ffffffffffffffffffffffffffffffffffffffff82169050919050565b6000819050919050565b7f4e487b7100000000000000000000000000000000000000000000000000000000600052601160045260246000fd5b7f4e487b7100000000000000000000000000000000000000000000000000000000600052601260045260246000fd5b7f4f6e6c79206f776e6572206d6179206d6f64696679207374616b696e6720706560008201527f72696f6473000000000000000000000000000000000000000000000000000000602082015250565b7f4d617070696e67206e6f7420666f756e64000000000000000000000000000000600082015250565b7f4f6e6c79206f776e6572206d6179206d6f64696679207374616b696e6720706560008201527f72696f6400000000000000000000000000000000000000000000000000000000602082015250565b7f636c6f736520706f736974696f6e206661696c65640000000000000000000000600082015250565b7f4f6e6c7920706f736974696f6e2063726561746f72206d6179206d6f6469667960008201527f20706f736974696f6e0000000000000000000000000000000000000000000000602082015250565b7f506f736974696f6e20697320636c6f7365640000000000000000000000000000600082015250565b50565b6116588161143e565b811461166357600080fd5b50565b61166f8161147c565b811461167a57600080fd5b5056fea2646970667358221220e0537906d4040eb3b8556ae55c660f4f4ddddab2a1d4c7128dc4efbc6223f44864736f6c63430008040033",
  "linkReferences": {},
  "deployedLinkReferences": {}
}